{
  "address": "0x493De1B2028579537C9b563e1457a762D671C5A4",
  "abi": [
    {
      "inputs": [
        {
          "internalType": "address",
          "name": "_nftContract",
          "type": "address"
        }
      ],
      "stateMutability": "nonpayable",
      "type": "constructor"
    },
    {
      "anonymous": false,
      "inputs": [
        {
          "indexed": true,
          "internalType": "address",
          "name": "owner",
          "type": "address"
        },
        {
          "indexed": true,
          "internalType": "uint256",
          "name": "propertyId",
          "type": "uint256"
        },
        {
          "indexed": false,
          "internalType": "string",
          "name": "name",
          "type": "string"
        },
        {
          "indexed": false,
          "internalType": "uint256",
          "name": "totalShares",
          "type": "uint256"
        },
        {
          "indexed": false,
          "internalType": "uint256",
          "name": "sharePrice",
          "type": "uint256"
        }
      ],
      "name": "PropertyCreated",
      "type": "event"
    },
    {
      "anonymous": false,
      "inputs": [
        {
          "indexed": true,
          "internalType": "address",
          "name": "buyer",
          "type": "address"
        },
        {
          "indexed": true,
          "internalType": "uint256",
          "name": "propertyId",
          "type": "uint256"
        },
        {
          "indexed": false,
          "internalType": "uint256",
          "name": "shareId",
          "type": "uint256"
        },
        {
          "indexed": false,
          "internalType": "uint256",
          "name": "sharePrice",
          "type": "uint256"
        },
        {
          "indexed": false,
          "internalType": "uint256",
          "name": "newTokenId",
          "type": "uint256"
        }
      ],
      "name": "ShareBought",
      "type": "event"
    },
    {
      "inputs": [
        {
          "internalType": "uint256",
          "name": "_propertyId",
          "type": "uint256"
        },
        {
          "internalType": "string",
          "name": "_tokenURI",
          "type": "string"
        }
      ],
      "name": "buyShare",
      "outputs": [],
      "stateMutability": "payable",
      "type": "function"
    },
    {
      "inputs": [
        {
          "internalType": "string",
          "name": "_name",
          "type": "string"
        },
        {
          "internalType": "uint256",
          "name": "_totalShares",
          "type": "uint256"
        },
        {
          "internalType": "uint256",
          "name": "_sharePrice",
          "type": "uint256"
        },
        {
          "internalType": "string",
          "name": "_image",
          "type": "string"
        }
      ],
      "name": "createProperty",
      "outputs": [],
      "stateMutability": "nonpayable",
      "type": "function"
    },
    {
      "inputs": [
        {
          "internalType": "uint256",
          "name": "_propertyId",
          "type": "uint256"
        }
      ],
      "name": "getPropertyShares",
      "outputs": [
        {
          "components": [
            {
              "internalType": "uint256",
              "name": "shareId",
              "type": "uint256"
            },
            {
              "internalType": "bool",
              "name": "isSold",
              "type": "bool"
            },
            {
              "internalType": "uint256",
              "name": "propertyId",
              "type": "uint256"
            },
            {
              "internalType": "uint256",
              "name": "price",
              "type": "uint256"
            },
            {
              "internalType": "address",
              "name": "owner",
              "type": "address"
            }
          ],
          "internalType": "struct PropertyShares.Share[]",
          "name": "",
          "type": "tuple[]"
        }
      ],
      "stateMutability": "view",
      "type": "function"
    },
    {
      "inputs": [],
      "name": "nftContract",
      "outputs": [
        {
          "internalType": "contract PropertyNFT",
          "name": "",
          "type": "address"
        }
      ],
      "stateMutability": "view",
      "type": "function"
    },
    {
      "inputs": [],
      "name": "numProperties",
      "outputs": [
        {
          "internalType": "uint256",
          "name": "",
          "type": "uint256"
        }
      ],
      "stateMutability": "view",
      "type": "function"
    },
    {
      "inputs": [
        {
          "internalType": "uint256",
          "name": "",
          "type": "uint256"
        }
      ],
      "name": "properties",
      "outputs": [
        {
          "internalType": "uint256",
          "name": "propertyId",
          "type": "uint256"
        },
        {
          "internalType": "address payable",
          "name": "owner",
          "type": "address"
        },
        {
          "internalType": "string",
          "name": "name",
          "type": "string"
        },
        {
          "internalType": "uint256",
          "name": "totalShares",
          "type": "uint256"
        },
        {
          "internalType": "uint256",
          "name": "sharePrice",
          "type": "uint256"
        },
        {
          "internalType": "uint256",
          "name": "sharesSold",
          "type": "uint256"
        },
        {
          "internalType": "string",
          "name": "image",
          "type": "string"
        }
      ],
      "stateMutability": "view",
      "type": "function"
    },
    {
      "inputs": [],
      "name": "sharesCounter",
      "outputs": [
        {
          "internalType": "uint256",
          "name": "",
          "type": "uint256"
        }
      ],
      "stateMutability": "view",
      "type": "function"
    }
  ],
  "transactionHash": "0x72adc635b90806da4a2e53005a466388e2734b0fa1ee8bbf5e1e885f8631e57f",
  "args": [
    "0x672923F4A1A2C3905fA606323927d15181Bab980"
  ],
  "numDeployments": 2,
  "solcInputHash": "86659420dc1a2acac7ddbabf52a2e57e",
  "bytecode": "0x6080604052600060035534801561001557600080fd5b50604051610d23380380610d2383398101604081905261003491610059565b600080546001600160a01b0319166001600160a01b0392909216919091179055610089565b60006020828403121561006b57600080fd5b81516001600160a01b038116811461008257600080fd5b9392505050565b610c8b806100986000396000f3fe6080604052600436106100705760003560e01c8063d56d229d1161004e578063d56d229d146100c9578063da825c8514610101578063efcc1fb614610121578063f7b108081461014e57600080fd5b80633d7d3f6e1461007557806376fe0a831461008a578063b256a1c4146100b3575b600080fd5b610088610083366004610873565b610181565b005b34801561009657600080fd5b506100a060035481565b6040519081526020015b60405180910390f35b3480156100bf57600080fd5b506100a060025481565b3480156100d557600080fd5b506000546100e9906001600160a01b031681565b6040516001600160a01b0390911681526020016100aa565b34801561010d57600080fd5b5061008861011c3660046108ba565b610438565b34801561012d57600080fd5b5061014161013c366004610931565b6104e9565b6040516100aa919061094a565b34801561015a57600080fd5b5061016e610169366004610931565b61062d565b6040516100aa9796959493929190610a09565b6000828152600160208190526040909120908101546001600160a01b03166101f05760405162461bcd60e51b815260206004820152601760248201527f50726f706572747920646f6573206e6f7420657869737400000000000000000060448201526064015b60405180910390fd5b60038101546005820154106102475760405162461bcd60e51b815260206004820152601760248201527f416c6c207368617265732061726520736f6c64206f757400000000000000000060448201526064016101e7565b80600401543410156102905760405162461bcd60e51b8152602060048201526012602482015271496e73756666696369656e742066756e647360701b60448201526064016101e7565b600061029b82610783565b905060001981036102e45760405162461bcd60e51b81526020600482015260136024820152724e6f20617661696c61626c652073686172657360681b60448201526064016101e7565b600081815260078301602052604081206001808201805460ff191690911790556004810180546001600160a01b03191633179055600584018054919261032983610a65565b909155505060018301546040516001600160a01b039091169081903480156108fc02916000818181858888f1935050505015801561036b573d6000803e3d6000fd5b5060008054604051633ab2af8560e21b81526001600160a01b039091169063eacabe149061039f9033908a90600401610a8c565b6020604051808303816000875af11580156103be573d6000803e3d6000fd5b505050506040513d601f19601f820116820180604052508101906103e29190610ab8565b60048601546040805187815260208101929092528101829052909150879033907f6c3a4ba1b12819ce85a9d2279104a5e2f67e7a715435b2c7e6699b9e3454c7719060600160405180910390a350505050505050565b600280546000818152600160208190526040909120918255810180546001600160a01b0319163317905590810161046f8682610b5a565b5060038101849055600481018390556006810161048c8382610b5a565b50805460405133907f2e5036640d0aae3125f012fccfc1c04ce481453853a91e7463925107f4977118906104c590899089908990610c1a565b60405180910390a3600280549060006104dd83610a65565b91905055505050505050565b600081815260016020526040812060038101546060929067ffffffffffffffff811115610518576105186107d0565b60405190808252806020026020018201604052801561058657816020015b6105736040518060a0016040528060008152602001600015158152602001600081526020016000815260200160006001600160a01b031681525090565b8152602001906001900390816105365790505b50905060005b8260030154811015610625576000818152600784016020908152604091829020825160a08101845281548152600182015460ff16151592810192909252600281015492820192909252600382015460608201526004909101546001600160a01b03166080820152825183908390811061060757610607610c3f565b6020026020010181905250808061061d90610a65565b91505061058c565b509392505050565b60016020819052600091825260409091208054918101546002820180546001600160a01b03909216929161066090610ad1565b80601f016020809104026020016040519081016040528092919081815260200182805461068c90610ad1565b80156106d95780601f106106ae576101008083540402835291602001916106d9565b820191906000526020600020905b8154815290600101906020018083116106bc57829003601f168201915b50505050509080600301549080600401549080600501549080600601805461070090610ad1565b80601f016020809104026020016040519081016040528092919081815260200182805461072c90610ad1565b80156107795780601f1061074e57610100808354040283529160200191610779565b820191906000526020600020905b81548152906001019060200180831161075c57829003601f168201915b5050505050905087565b6000805b82600301548110156107c657600081815260078401602052604090206001015460ff166107b45792915050565b806107be81610a65565b915050610787565b5060001992915050565b634e487b7160e01b600052604160045260246000fd5b600082601f8301126107f757600080fd5b813567ffffffffffffffff80821115610812576108126107d0565b604051601f8301601f19908116603f0116810190828211818310171561083a5761083a6107d0565b8160405283815286602085880101111561085357600080fd5b836020870160208301376000602085830101528094505050505092915050565b6000806040838503121561088657600080fd5b82359150602083013567ffffffffffffffff8111156108a457600080fd5b6108b0858286016107e6565b9150509250929050565b600080600080608085870312156108d057600080fd5b843567ffffffffffffffff808211156108e857600080fd5b6108f4888389016107e6565b95506020870135945060408701359350606087013591508082111561091857600080fd5b50610925878288016107e6565b91505092959194509250565b60006020828403121561094357600080fd5b5035919050565b602080825282518282018190526000919060409081850190868401855b828110156109b657815180518552868101511515878601528581015186860152606080820151908601526080908101516001600160a01b03169085015260a09093019290850190600101610967565b5091979650505050505050565b6000815180845260005b818110156109e9576020818501810151868301820152016109cd565b506000602082860101526020601f19601f83011685010191505092915050565b8781526001600160a01b038716602082015260e060408201819052600090610a33908301886109c3565b8660608401528560808401528460a084015282810360c0840152610a5781856109c3565b9a9950505050505050505050565b600060018201610a8557634e487b7160e01b600052601160045260246000fd5b5060010190565b6001600160a01b0383168152604060208201819052600090610ab0908301846109c3565b949350505050565b600060208284031215610aca57600080fd5b5051919050565b600181811c90821680610ae557607f821691505b602082108103610b0557634e487b7160e01b600052602260045260246000fd5b50919050565b601f821115610b5557600081815260208120601f850160051c81016020861015610b325750805b601f850160051c820191505b81811015610b5157828155600101610b3e565b5050505b505050565b815167ffffffffffffffff811115610b7457610b746107d0565b610b8881610b828454610ad1565b84610b0b565b602080601f831160018114610bbd5760008415610ba55750858301515b600019600386901b1c1916600185901b178555610b51565b600085815260208120601f198616915b82811015610bec57888601518255948401946001909101908401610bcd565b5085821015610c0a5787850151600019600388901b60f8161c191681555b5050505050600190811b01905550565b606081526000610c2d60608301866109c3565b60208301949094525060400152919050565b634e487b7160e01b600052603260045260246000fdfea264697066735822122081b641a793d9057a1d4e3f4ff20b7ea34c4b8a1bcbf14aa6182fd5f1f41d127664736f6c63430008110033",
  "devdoc": {
    "kind": "dev",
    "methods": {},
    "version": 1
  },
  "userdoc": {
    "kind": "user",
    "methods": {},
    "version": 1
  },
  "storageLayout": {
    "storage": [
      {
        "astId": 2910,
        "contract": "contracts/PropertyShares.sol:PropertyShares",
        "label": "nftContract",
        "offset": 0,
        "slot": "0",
        "type": "t_contract(PropertyNFT)2904"
      },
      {
        "astId": 2982,
        "contract": "contracts/PropertyShares.sol:PropertyShares",
        "label": "properties",
        "offset": 0,
        "slot": "1",
        "type": "t_mapping(t_uint256,t_struct(Property)2977_storage)"
      },
      {
        "astId": 2984,
        "contract": "contracts/PropertyShares.sol:PropertyShares",
        "label": "numProperties",
        "offset": 0,
        "slot": "2",
        "type": "t_uint256"
      },
      {
        "astId": 2987,
        "contract": "contracts/PropertyShares.sol:PropertyShares",
        "label": "sharesCounter",
        "offset": 0,
        "slot": "3",
        "type": "t_uint256"
      }
    ],
    "types": {
      "t_address": {
        "encoding": "inplace",
        "label": "address",
        "numberOfBytes": "20"
      },
      "t_address_payable": {
        "encoding": "inplace",
        "label": "address payable",
        "numberOfBytes": "20"
      },
      "t_bool": {
        "encoding": "inplace",
        "label": "bool",
        "numberOfBytes": "1"
      },
      "t_contract(PropertyNFT)2904": {
        "encoding": "inplace",
        "label": "contract PropertyNFT",
        "numberOfBytes": "20"
      },
      "t_mapping(t_uint256,t_struct(Property)2977_storage)": {
        "encoding": "mapping",
        "key": "t_uint256",
        "label": "mapping(uint256 => struct PropertyShares.Property)",
        "numberOfBytes": "32",
        "value": "t_struct(Property)2977_storage"
      },
      "t_mapping(t_uint256,t_struct(Share)2957_storage)": {
        "encoding": "mapping",
        "key": "t_uint256",
        "label": "mapping(uint256 => struct PropertyShares.Share)",
        "numberOfBytes": "32",
        "value": "t_struct(Share)2957_storage"
      },
      "t_string_storage": {
        "encoding": "bytes",
        "label": "string",
        "numberOfBytes": "32"
      },
      "t_struct(Property)2977_storage": {
        "encoding": "inplace",
        "label": "struct PropertyShares.Property",
        "members": [
          {
            "astId": 2959,
            "contract": "contracts/PropertyShares.sol:PropertyShares",
            "label": "propertyId",
            "offset": 0,
            "slot": "0",
            "type": "t_uint256"
          },
          {
            "astId": 2961,
            "contract": "contracts/PropertyShares.sol:PropertyShares",
            "label": "owner",
            "offset": 0,
            "slot": "1",
            "type": "t_address_payable"
          },
          {
            "astId": 2963,
            "contract": "contracts/PropertyShares.sol:PropertyShares",
            "label": "name",
            "offset": 0,
            "slot": "2",
            "type": "t_string_storage"
          },
          {
            "astId": 2965,
            "contract": "contracts/PropertyShares.sol:PropertyShares",
            "label": "totalShares",
            "offset": 0,
            "slot": "3",
            "type": "t_uint256"
          },
          {
            "astId": 2967,
            "contract": "contracts/PropertyShares.sol:PropertyShares",
            "label": "sharePrice",
            "offset": 0,
            "slot": "4",
            "type": "t_uint256"
          },
          {
            "astId": 2969,
            "contract": "contracts/PropertyShares.sol:PropertyShares",
            "label": "sharesSold",
            "offset": 0,
            "slot": "5",
            "type": "t_uint256"
          },
          {
            "astId": 2971,
            "contract": "contracts/PropertyShares.sol:PropertyShares",
            "label": "image",
            "offset": 0,
            "slot": "6",
            "type": "t_string_storage"
          },
          {
            "astId": 2976,
            "contract": "contracts/PropertyShares.sol:PropertyShares",
            "label": "shares",
            "offset": 0,
            "slot": "7",
            "type": "t_mapping(t_uint256,t_struct(Share)2957_storage)"
          }
        ],
        "numberOfBytes": "256"
      },
      "t_struct(Share)2957_storage": {
        "encoding": "inplace",
        "label": "struct PropertyShares.Share",
        "members": [
          {
            "astId": 2948,
            "contract": "contracts/PropertyShares.sol:PropertyShares",
            "label": "shareId",
            "offset": 0,
            "slot": "0",
            "type": "t_uint256"
          },
          {
            "astId": 2950,
            "contract": "contracts/PropertyShares.sol:PropertyShares",
            "label": "isSold",
            "offset": 0,
            "slot": "1",
            "type": "t_bool"
          },
          {
            "astId": 2952,
            "contract": "contracts/PropertyShares.sol:PropertyShares",
            "label": "propertyId",
            "offset": 0,
            "slot": "2",
            "type": "t_uint256"
          },
          {
            "astId": 2954,
            "contract": "contracts/PropertyShares.sol:PropertyShares",
            "label": "price",
            "offset": 0,
            "slot": "3",
            "type": "t_uint256"
          },
          {
            "astId": 2956,
            "contract": "contracts/PropertyShares.sol:PropertyShares",
            "label": "owner",
            "offset": 0,
            "slot": "4",
            "type": "t_address"
          }
        ],
        "numberOfBytes": "160"
      },
      "t_uint256": {
        "encoding": "inplace",
        "label": "uint256",
        "numberOfBytes": "32"
      }
    }
  }
}